{
  "_format": "hh-sol-artifact-1",
  "contractName": "CarbonCreditsMarketplace",
  "sourceName": "contracts/CarbonCreditsMarketplace.sol",
  "abi": [
    {
      "inputs": [
        {
          "internalType": "uint256",
          "name": "initialSupply",
          "type": "uint256"
        },
        {
          "internalType": "uint256",
          "name": "_pricePerCarbonCredit",
          "type": "uint256"
        }
      ],
      "stateMutability": "nonpayable",
      "type": "constructor"
    },
    {
      "inputs": [
        {
          "internalType": "address",
          "name": "spender",
          "type": "address"
        },
        {
          "internalType": "uint256",
          "name": "allowance",
          "type": "uint256"
        },
        {
          "internalType": "uint256",
          "name": "needed",
          "type": "uint256"
        }
      ],
      "name": "ERC20InsufficientAllowance",
      "type": "error"
    },
    {
      "inputs": [
        {
          "internalType": "address",
          "name": "sender",
          "type": "address"
        },
        {
          "internalType": "uint256",
          "name": "balance",
          "type": "uint256"
        },
        {
          "internalType": "uint256",
          "name": "needed",
          "type": "uint256"
        }
      ],
      "name": "ERC20InsufficientBalance",
      "type": "error"
    },
    {
      "inputs": [
        {
          "internalType": "address",
          "name": "approver",
          "type": "address"
        }
      ],
      "name": "ERC20InvalidApprover",
      "type": "error"
    },
    {
      "inputs": [
        {
          "internalType": "address",
          "name": "receiver",
          "type": "address"
        }
      ],
      "name": "ERC20InvalidReceiver",
      "type": "error"
    },
    {
      "inputs": [
        {
          "internalType": "address",
          "name": "sender",
          "type": "address"
        }
      ],
      "name": "ERC20InvalidSender",
      "type": "error"
    },
    {
      "inputs": [
        {
          "internalType": "address",
          "name": "spender",
          "type": "address"
        }
      ],
      "name": "ERC20InvalidSpender",
      "type": "error"
    },
    {
      "inputs": [
        {
          "internalType": "address",
          "name": "owner",
          "type": "address"
        }
      ],
      "name": "OwnableInvalidOwner",
      "type": "error"
    },
    {
      "inputs": [
        {
          "internalType": "address",
          "name": "account",
          "type": "address"
        }
      ],
      "name": "OwnableUnauthorizedAccount",
      "type": "error"
    },
    {
      "anonymous": false,
      "inputs": [
        {
          "indexed": true,
          "internalType": "address",
          "name": "owner",
          "type": "address"
        },
        {
          "indexed": true,
          "internalType": "address",
          "name": "spender",
          "type": "address"
        },
        {
          "indexed": false,
          "internalType": "uint256",
          "name": "value",
          "type": "uint256"
        }
      ],
      "name": "Approval",
      "type": "event"
    },
    {
      "anonymous": false,
      "inputs": [
        {
          "indexed": true,
          "internalType": "address",
          "name": "buyer",
          "type": "address"
        },
        {
          "indexed": false,
          "internalType": "uint256",
          "name": "amount",
          "type": "uint256"
        }
      ],
      "name": "CarbonCreditPurchased",
      "type": "event"
    },
    {
      "anonymous": false,
      "inputs": [
        {
          "indexed": true,
          "internalType": "address",
          "name": "from",
          "type": "address"
        },
        {
          "indexed": true,
          "internalType": "address",
          "name": "to",
          "type": "address"
        },
        {
          "indexed": false,
          "internalType": "uint256",
          "name": "amount",
          "type": "uint256"
        }
      ],
      "name": "CarbonCreditTransferred",
      "type": "event"
    },
    {
      "anonymous": false,
      "inputs": [
        {
          "indexed": true,
          "internalType": "address",
          "name": "previousOwner",
          "type": "address"
        },
        {
          "indexed": true,
          "internalType": "address",
          "name": "newOwner",
          "type": "address"
        }
      ],
      "name": "OwnershipTransferred",
      "type": "event"
    },
    {
      "anonymous": false,
      "inputs": [
        {
          "indexed": false,
          "internalType": "uint256",
          "name": "newPrice",
          "type": "uint256"
        }
      ],
      "name": "PriceUpdated",
      "type": "event"
    },
    {
      "anonymous": false,
      "inputs": [
        {
          "indexed": true,
          "internalType": "address",
          "name": "from",
          "type": "address"
        },
        {
          "indexed": true,
          "internalType": "address",
          "name": "to",
          "type": "address"
        },
        {
          "indexed": false,
          "internalType": "uint256",
          "name": "value",
          "type": "uint256"
        }
      ],
      "name": "Transfer",
      "type": "event"
    },
    {
      "inputs": [
        {
          "internalType": "address",
          "name": "owner",
          "type": "address"
        },
        {
          "internalType": "address",
          "name": "spender",
          "type": "address"
        }
      ],
      "name": "allowance",
      "outputs": [
        {
          "internalType": "uint256",
          "name": "",
          "type": "uint256"
        }
      ],
      "stateMutability": "view",
      "type": "function"
    },
    {
      "inputs": [
        {
          "internalType": "address",
          "name": "spender",
          "type": "address"
        },
        {
          "internalType": "uint256",
          "name": "value",
          "type": "uint256"
        }
      ],
      "name": "approve",
      "outputs": [
        {
          "internalType": "bool",
          "name": "",
          "type": "bool"
        }
      ],
      "stateMutability": "nonpayable",
      "type": "function"
    },
    {
      "inputs": [
        {
          "internalType": "address",
          "name": "account",
          "type": "address"
        }
      ],
      "name": "balanceOf",
      "outputs": [
        {
          "internalType": "uint256",
          "name": "",
          "type": "uint256"
        }
      ],
      "stateMutability": "view",
      "type": "function"
    },
    {
      "inputs": [
        {
          "internalType": "address",
          "name": "",
          "type": "address"
        }
      ],
      "name": "carbonCredits",
      "outputs": [
        {
          "internalType": "uint256",
          "name": "",
          "type": "uint256"
        }
      ],
      "stateMutability": "view",
      "type": "function"
    },
    {
      "inputs": [],
      "name": "decimals",
      "outputs": [
        {
          "internalType": "uint8",
          "name": "",
          "type": "uint8"
        }
      ],
      "stateMutability": "view",
      "type": "function"
    },
    {
      "inputs": [],
      "name": "name",
      "outputs": [
        {
          "internalType": "string",
          "name": "",
          "type": "string"
        }
      ],
      "stateMutability": "view",
      "type": "function"
    },
    {
      "inputs": [],
      "name": "owner",
      "outputs": [
        {
          "internalType": "address",
          "name": "",
          "type": "address"
        }
      ],
      "stateMutability": "view",
      "type": "function"
    },
    {
      "inputs": [],
      "name": "pricePerCarbonCredit",
      "outputs": [
        {
          "internalType": "uint256",
          "name": "",
          "type": "uint256"
        }
      ],
      "stateMutability": "view",
      "type": "function"
    },
    {
      "inputs": [
        {
          "internalType": "uint256",
          "name": "amount",
          "type": "uint256"
        }
      ],
      "name": "purchaseCarbonCredits",
      "outputs": [],
      "stateMutability": "payable",
      "type": "function"
    },
    {
      "inputs": [],
      "name": "renounceOwnership",
      "outputs": [],
      "stateMutability": "nonpayable",
      "type": "function"
    },
    {
      "inputs": [],
      "name": "symbol",
      "outputs": [
        {
          "internalType": "string",
          "name": "",
          "type": "string"
        }
      ],
      "stateMutability": "view",
      "type": "function"
    },
    {
      "inputs": [],
      "name": "totalSupply",
      "outputs": [
        {
          "internalType": "uint256",
          "name": "",
          "type": "uint256"
        }
      ],
      "stateMutability": "view",
      "type": "function"
    },
    {
      "inputs": [
        {
          "internalType": "address",
          "name": "to",
          "type": "address"
        },
        {
          "internalType": "uint256",
          "name": "value",
          "type": "uint256"
        }
      ],
      "name": "transfer",
      "outputs": [
        {
          "internalType": "bool",
          "name": "",
          "type": "bool"
        }
      ],
      "stateMutability": "nonpayable",
      "type": "function"
    },
    {
      "inputs": [
        {
          "internalType": "address",
          "name": "recipient",
          "type": "address"
        },
        {
          "internalType": "uint256",
          "name": "amount",
          "type": "uint256"
        }
      ],
      "name": "transferCarbonCredits",
      "outputs": [],
      "stateMutability": "nonpayable",
      "type": "function"
    },
    {
      "inputs": [
        {
          "internalType": "address",
          "name": "from",
          "type": "address"
        },
        {
          "internalType": "address",
          "name": "to",
          "type": "address"
        },
        {
          "internalType": "uint256",
          "name": "value",
          "type": "uint256"
        }
      ],
      "name": "transferFrom",
      "outputs": [
        {
          "internalType": "bool",
          "name": "",
          "type": "bool"
        }
      ],
      "stateMutability": "nonpayable",
      "type": "function"
    },
    {
      "inputs": [
        {
          "internalType": "address",
          "name": "newOwner",
          "type": "address"
        }
      ],
      "name": "transferOwnership",
      "outputs": [],
      "stateMutability": "nonpayable",
      "type": "function"
    },
    {
      "inputs": [
        {
          "internalType": "uint256",
          "name": "newPrice",
          "type": "uint256"
        }
      ],
      "name": "updatePrice",
      "outputs": [],
      "stateMutability": "nonpayable",
      "type": "function"
    },
    {
      "inputs": [],
      "name": "withdraw",
      "outputs": [],
      "stateMutability": "nonpayable",
      "type": "function"
    }
  ],
  "bytecode": "0x60806040523480156200001157600080fd5b506040516200219238038062002192833981810160405281019062000037919062000535565b336040518060400160405280601181526020017f436172626f6e437265646974546f6b656e0000000000000000000000000000008152506040518060400160405280600381526020017f43435400000000000000000000000000000000000000000000000000000000008152508160039081620000b59190620007ec565b508060049081620000c79190620007ec565b505050600073ffffffffffffffffffffffffffffffffffffffff168173ffffffffffffffffffffffffffffffffffffffff16036200013f5760006040517f1e4fbdf700000000000000000000000000000000000000000000000000000000815260040162000136919062000918565b60405180910390fd5b62000150816200017260201b60201c565b506200016333836200023860201b60201c565b80600681905550505062000a0a565b6000600560009054906101000a900473ffffffffffffffffffffffffffffffffffffffff16905081600560006101000a81548173ffffffffffffffffffffffffffffffffffffffff021916908373ffffffffffffffffffffffffffffffffffffffff1602179055508173ffffffffffffffffffffffffffffffffffffffff168173ffffffffffffffffffffffffffffffffffffffff167f8be0079c531659141344cd1fd0a4f28419497f9722a3daafe3b4186f6b6457e060405160405180910390a35050565b600073ffffffffffffffffffffffffffffffffffffffff168273ffffffffffffffffffffffffffffffffffffffff1603620002ad5760006040517fec442f05000000000000000000000000000000000000000000000000000000008152600401620002a4919062000918565b60405180910390fd5b620002c160008383620002c560201b60201c565b5050565b600073ffffffffffffffffffffffffffffffffffffffff168373ffffffffffffffffffffffffffffffffffffffff16036200031b5780600260008282546200030e919062000964565b92505081905550620003f1565b60008060008573ffffffffffffffffffffffffffffffffffffffff1673ffffffffffffffffffffffffffffffffffffffff16815260200190815260200160002054905081811015620003aa578381836040517fe450d38c000000000000000000000000000000000000000000000000000000008152600401620003a193929190620009b0565b60405180910390fd5b8181036000808673ffffffffffffffffffffffffffffffffffffffff1673ffffffffffffffffffffffffffffffffffffffff16815260200190815260200160002081905550505b600073ffffffffffffffffffffffffffffffffffffffff168273ffffffffffffffffffffffffffffffffffffffff16036200043c578060026000828254039250508190555062000489565b806000808473ffffffffffffffffffffffffffffffffffffffff1673ffffffffffffffffffffffffffffffffffffffff168152602001908152602001600020600082825401925050819055505b8173ffffffffffffffffffffffffffffffffffffffff168373ffffffffffffffffffffffffffffffffffffffff167fddf252ad1be2c89b69c2b068fc378daa952ba7f163c4a11628f55a4df523b3ef83604051620004e89190620009ed565b60405180910390a3505050565b600080fd5b6000819050919050565b6200050f81620004fa565b81146200051b57600080fd5b50565b6000815190506200052f8162000504565b92915050565b600080604083850312156200054f576200054e620004f5565b5b60006200055f858286016200051e565b925050602062000572858286016200051e565b9150509250929050565b600081519050919050565b7f4e487b7100000000000000000000000000000000000000000000000000000000600052604160045260246000fd5b7f4e487b7100000000000000000000000000000000000000000000000000000000600052602260045260246000fd5b60006002820490506001821680620005fe57607f821691505b602082108103620006145762000613620005b6565b5b50919050565b60008190508160005260206000209050919050565b60006020601f8301049050919050565b600082821b905092915050565b6000600883026200067e7fffffffffffffffffffffffffffffffffffffffffffffffffffffffffffffffff826200063f565b6200068a86836200063f565b95508019841693508086168417925050509392505050565b6000819050919050565b6000620006cd620006c7620006c184620004fa565b620006a2565b620004fa565b9050919050565b6000819050919050565b620006e983620006ac565b62000701620006f882620006d4565b8484546200064c565b825550505050565b600090565b6200071862000709565b62000725818484620006de565b505050565b5b818110156200074d57620007416000826200070e565b6001810190506200072b565b5050565b601f8211156200079c5762000766816200061a565b62000771846200062f565b8101602085101562000781578190505b6200079962000790856200062f565b8301826200072a565b50505b505050565b600082821c905092915050565b6000620007c160001984600802620007a1565b1980831691505092915050565b6000620007dc8383620007ae565b9150826002028217905092915050565b620007f7826200057c565b67ffffffffffffffff81111562000813576200081262000587565b5b6200081f8254620005e5565b6200082c82828562000751565b600060209050601f8311600181146200086457600084156200084f578287015190505b6200085b8582620007ce565b865550620008cb565b601f19841662000874866200061a565b60005b828110156200089e5784890151825560018201915060208501945060208101905062000877565b86831015620008be5784890151620008ba601f891682620007ae565b8355505b6001600288020188555050505b505050505050565b600073ffffffffffffffffffffffffffffffffffffffff82169050919050565b60006200090082620008d3565b9050919050565b6200091281620008f3565b82525050565b60006020820190506200092f600083018462000907565b92915050565b7f4e487b7100000000000000000000000000000000000000000000000000000000600052601160045260246000fd5b60006200097182620004fa565b91506200097e83620004fa565b925082820190508082111562000999576200099862000935565b5b92915050565b620009aa81620004fa565b82525050565b6000606082019050620009c7600083018662000907565b620009d660208301856200099f565b620009e560408301846200099f565b949350505050565b600060208201905062000a0460008301846200099f565b92915050565b6117788062000a1a6000396000f3fe6080604052600436106101095760003560e01c80637aa2bdd411610095578063a9059cbb11610064578063a9059cbb1461035b578063afcdd81314610398578063cc8279fc146103c1578063dd62ed3e146103dd578063f2fde38b1461041a57610109565b80637aa2bdd41461029f5780638d6cc56d146102dc5780638da5cb5b1461030557806395d89b411461033057610109565b806323b872dd116100dc57806323b872dd146101cc578063313ce567146102095780633ccfd60b1461023457806370a082311461024b578063715018a61461028857610109565b806306fdde031461010e578063095ea7b31461013957806318160ddd1461017657806320065d23146101a1575b600080fd5b34801561011a57600080fd5b50610123610443565b6040516101309190611251565b60405180910390f35b34801561014557600080fd5b50610160600480360381019061015b919061130c565b6104d5565b60405161016d9190611367565b60405180910390f35b34801561018257600080fd5b5061018b6104f8565b6040516101989190611391565b60405180910390f35b3480156101ad57600080fd5b506101b6610502565b6040516101c39190611391565b60405180910390f35b3480156101d857600080fd5b506101f360048036038101906101ee91906113ac565b610508565b6040516102009190611367565b60405180910390f35b34801561021557600080fd5b5061021e610537565b60405161022b919061141b565b60405180910390f35b34801561024057600080fd5b50610249610540565b005b34801561025757600080fd5b50610272600480360381019061026d9190611436565b610598565b60405161027f9190611391565b60405180910390f35b34801561029457600080fd5b5061029d6105e0565b005b3480156102ab57600080fd5b506102c660048036038101906102c19190611436565b6105f4565b6040516102d39190611391565b60405180910390f35b3480156102e857600080fd5b5061030360048036038101906102fe9190611463565b61060c565b005b34801561031157600080fd5b5061031a610655565b604051610327919061149f565b60405180910390f35b34801561033c57600080fd5b5061034561067f565b6040516103529190611251565b60405180910390f35b34801561036757600080fd5b50610382600480360381019061037d919061130c565b610711565b60405161038f9190611367565b60405180910390f35b3480156103a457600080fd5b506103bf60048036038101906103ba919061130c565b610734565b005b6103db60048036038101906103d69190611463565b6108cb565b005b3480156103e957600080fd5b5061040460048036038101906103ff91906114ba565b6109c8565b6040516104119190611391565b60405180910390f35b34801561042657600080fd5b50610441600480360381019061043c9190611436565b610a4f565b005b60606003805461045290611529565b80601f016020809104026020016040519081016040528092919081815260200182805461047e90611529565b80156104cb5780601f106104a0576101008083540402835291602001916104cb565b820191906000526020600020905b8154815290600101906020018083116104ae57829003601f168201915b5050505050905090565b6000806104e0610ad5565b90506104ed818585610add565b600191505092915050565b6000600254905090565b60065481565b600080610513610ad5565b9050610520858285610aef565b61052b858585610b84565b60019150509392505050565b60006012905090565b610548610c78565b610550610655565b73ffffffffffffffffffffffffffffffffffffffff166108fc479081150290604051600060405180830381858888f19350505050158015610595573d6000803e3d6000fd5b50565b60008060008373ffffffffffffffffffffffffffffffffffffffff1673ffffffffffffffffffffffffffffffffffffffff168152602001908152602001600020549050919050565b6105e8610c78565b6105f26000610cff565b565b60076020528060005260406000206000915090505481565b610614610c78565b806006819055507f66cbca4f3c64fecf1dcb9ce094abcf7f68c3450a1d4e3a8e917dd621edb4ebe08160405161064a9190611391565b60405180910390a150565b6000600560009054906101000a900473ffffffffffffffffffffffffffffffffffffffff16905090565b60606004805461068e90611529565b80601f01602080910402602001604051908101604052809291908181526020018280546106ba90611529565b80156107075780601f106106dc57610100808354040283529160200191610707565b820191906000526020600020905b8154815290600101906020018083116106ea57829003601f168201915b5050505050905090565b60008061071c610ad5565b9050610729818585610b84565b600191505092915050565b80600760003373ffffffffffffffffffffffffffffffffffffffff1673ffffffffffffffffffffffffffffffffffffffff1681526020019081526020016000205410156107b6576040517f08c379a00000000000000000000000000000000000000000000000000000000081526004016107ad906115a6565b60405180910390fd5b80600760003373ffffffffffffffffffffffffffffffffffffffff1673ffffffffffffffffffffffffffffffffffffffff168152602001908152602001600020600082825461080591906115f5565b9250508190555080600760008473ffffffffffffffffffffffffffffffffffffffff1673ffffffffffffffffffffffffffffffffffffffff168152602001908152602001600020600082825461085b9190611629565b925050819055508173ffffffffffffffffffffffffffffffffffffffff163373ffffffffffffffffffffffffffffffffffffffff167f7e95113809daf6b378cb1caf9641a894a32fc97bfa22edaffd31d92564400ec0836040516108bf9190611391565b60405180910390a35050565b6000600654826108db919061165d565b905080341015610920576040517f08c379a0000000000000000000000000000000000000000000000000000000008152600401610917906116eb565b60405180910390fd5b81600760003373ffffffffffffffffffffffffffffffffffffffff1673ffffffffffffffffffffffffffffffffffffffff168152602001908152602001600020600082825461096f9190611629565b925050819055503373ffffffffffffffffffffffffffffffffffffffff167f23bc5ed4ac8e21d5f567ccb36854ac9502d230e1460dd777c27bd8ba791bea4a836040516109bc9190611391565b60405180910390a25050565b6000600160008473ffffffffffffffffffffffffffffffffffffffff1673ffffffffffffffffffffffffffffffffffffffff16815260200190815260200160002060008373ffffffffffffffffffffffffffffffffffffffff1673ffffffffffffffffffffffffffffffffffffffff16815260200190815260200160002054905092915050565b610a57610c78565b600073ffffffffffffffffffffffffffffffffffffffff168173ffffffffffffffffffffffffffffffffffffffff1603610ac95760006040517f1e4fbdf7000000000000000000000000000000000000000000000000000000008152600401610ac0919061149f565b60405180910390fd5b610ad281610cff565b50565b600033905090565b610aea8383836001610dc5565b505050565b6000610afb84846109c8565b90507fffffffffffffffffffffffffffffffffffffffffffffffffffffffffffffffff811015610b7e5781811015610b6e578281836040517ffb8f41b2000000000000000000000000000000000000000000000000000000008152600401610b659392919061170b565b60405180910390fd5b610b7d84848484036000610dc5565b5b50505050565b600073ffffffffffffffffffffffffffffffffffffffff168373ffffffffffffffffffffffffffffffffffffffff1603610bf65760006040517f96c6fd1e000000000000000000000000000000000000000000000000000000008152600401610bed919061149f565b60405180910390fd5b600073ffffffffffffffffffffffffffffffffffffffff168273ffffffffffffffffffffffffffffffffffffffff1603610c685760006040517fec442f05000000000000000000000000000000000000000000000000000000008152600401610c5f919061149f565b60405180910390fd5b610c73838383610f9c565b505050565b610c80610ad5565b73ffffffffffffffffffffffffffffffffffffffff16610c9e610655565b73ffffffffffffffffffffffffffffffffffffffff1614610cfd57610cc1610ad5565b6040517f118cdaa7000000000000000000000000000000000000000000000000000000008152600401610cf4919061149f565b60405180910390fd5b565b6000600560009054906101000a900473ffffffffffffffffffffffffffffffffffffffff16905081600560006101000a81548173ffffffffffffffffffffffffffffffffffffffff021916908373ffffffffffffffffffffffffffffffffffffffff1602179055508173ffffffffffffffffffffffffffffffffffffffff168173ffffffffffffffffffffffffffffffffffffffff167f8be0079c531659141344cd1fd0a4f28419497f9722a3daafe3b4186f6b6457e060405160405180910390a35050565b600073ffffffffffffffffffffffffffffffffffffffff168473ffffffffffffffffffffffffffffffffffffffff1603610e375760006040517fe602df05000000000000000000000000000000000000000000000000000000008152600401610e2e919061149f565b60405180910390fd5b600073ffffffffffffffffffffffffffffffffffffffff168373ffffffffffffffffffffffffffffffffffffffff1603610ea95760006040517f94280d62000000000000000000000000000000000000000000000000000000008152600401610ea0919061149f565b60405180910390fd5b81600160008673ffffffffffffffffffffffffffffffffffffffff1673ffffffffffffffffffffffffffffffffffffffff16815260200190815260200160002060008573ffffffffffffffffffffffffffffffffffffffff1673ffffffffffffffffffffffffffffffffffffffff168152602001908152602001600020819055508015610f96578273ffffffffffffffffffffffffffffffffffffffff168473ffffffffffffffffffffffffffffffffffffffff167f8c5be1e5ebec7d5bd14f71427d1e84f3dd0314c0f7b2291e5b200ac8c7c3b92584604051610f8d9190611391565b60405180910390a35b50505050565b600073ffffffffffffffffffffffffffffffffffffffff168373ffffffffffffffffffffffffffffffffffffffff1603610fee578060026000828254610fe29190611629565b925050819055506110c1565b60008060008573ffffffffffffffffffffffffffffffffffffffff1673ffffffffffffffffffffffffffffffffffffffff1681526020019081526020016000205490508181101561107a578381836040517fe450d38c0000000000000000000000000000000000000000000000000000000081526004016110719392919061170b565b60405180910390fd5b8181036000808673ffffffffffffffffffffffffffffffffffffffff1673ffffffffffffffffffffffffffffffffffffffff16815260200190815260200160002081905550505b600073ffffffffffffffffffffffffffffffffffffffff168273ffffffffffffffffffffffffffffffffffffffff160361110a5780600260008282540392505081905550611157565b806000808473ffffffffffffffffffffffffffffffffffffffff1673ffffffffffffffffffffffffffffffffffffffff168152602001908152602001600020600082825401925050819055505b8173ffffffffffffffffffffffffffffffffffffffff168373ffffffffffffffffffffffffffffffffffffffff167fddf252ad1be2c89b69c2b068fc378daa952ba7f163c4a11628f55a4df523b3ef836040516111b49190611391565b60405180910390a3505050565b600081519050919050565b600082825260208201905092915050565b60005b838110156111fb5780820151818401526020810190506111e0565b60008484015250505050565b6000601f19601f8301169050919050565b6000611223826111c1565b61122d81856111cc565b935061123d8185602086016111dd565b61124681611207565b840191505092915050565b6000602082019050818103600083015261126b8184611218565b905092915050565b600080fd5b600073ffffffffffffffffffffffffffffffffffffffff82169050919050565b60006112a382611278565b9050919050565b6112b381611298565b81146112be57600080fd5b50565b6000813590506112d0816112aa565b92915050565b6000819050919050565b6112e9816112d6565b81146112f457600080fd5b50565b600081359050611306816112e0565b92915050565b6000806040838503121561132357611322611273565b5b6000611331858286016112c1565b9250506020611342858286016112f7565b9150509250929050565b60008115159050919050565b6113618161134c565b82525050565b600060208201905061137c6000830184611358565b92915050565b61138b816112d6565b82525050565b60006020820190506113a66000830184611382565b92915050565b6000806000606084860312156113c5576113c4611273565b5b60006113d3868287016112c1565b93505060206113e4868287016112c1565b92505060406113f5868287016112f7565b9150509250925092565b600060ff82169050919050565b611415816113ff565b82525050565b6000602082019050611430600083018461140c565b92915050565b60006020828403121561144c5761144b611273565b5b600061145a848285016112c1565b91505092915050565b60006020828403121561147957611478611273565b5b6000611487848285016112f7565b91505092915050565b61149981611298565b82525050565b60006020820190506114b46000830184611490565b92915050565b600080604083850312156114d1576114d0611273565b5b60006114df858286016112c1565b92505060206114f0858286016112c1565b9150509250929050565b7f4e487b7100000000000000000000000000000000000000000000000000000000600052602260045260246000fd5b6000600282049050600182168061154157607f821691505b602082108103611554576115536114fa565b5b50919050565b7f496e73756666696369656e7420636172626f6e20637265646974730000000000600082015250565b6000611590601b836111cc565b915061159b8261155a565b602082019050919050565b600060208201905081810360008301526115bf81611583565b9050919050565b7f4e487b7100000000000000000000000000000000000000000000000000000000600052601160045260246000fd5b6000611600826112d6565b915061160b836112d6565b9250828203905081811115611623576116226115c6565b5b92915050565b6000611634826112d6565b915061163f836112d6565b9250828201905080821115611657576116566115c6565b5b92915050565b6000611668826112d6565b9150611673836112d6565b9250828202611681816112d6565b91508282048414831517611698576116976115c6565b5b5092915050565b7f496e73756666696369656e74207061796d656e74000000000000000000000000600082015250565b60006116d56014836111cc565b91506116e08261169f565b602082019050919050565b60006020820190508181036000830152611704816116c8565b9050919050565b60006060820190506117206000830186611490565b61172d6020830185611382565b61173a6040830184611382565b94935050505056fea26469706673582212208f3b7b90b6b16a914c59679010998f942a37dfc055d45cca40ae37bdb940e5ac64736f6c63430008140033",
  "linkReferences": {},
  "deployedLinkReferences": {}
}